{
  "_format": "hh-sol-artifact-1",
  "contractName": "OwnerWithdrawable",
  "sourceName": "contracts/OwnerWithdrawable.sol",
  "abi": [
    {
      "inputs": [],
      "stateMutability": "nonpayable",
      "type": "constructor"
    },
    {
      "inputs": [
        {
          "internalType": "address",
          "name": "owner",
          "type": "address"
        }
      ],
      "name": "OwnableInvalidOwner",
      "type": "error"
    },
    {
      "inputs": [
        {
          "internalType": "address",
          "name": "account",
          "type": "address"
        }
      ],
      "name": "OwnableUnauthorizedAccount",
      "type": "error"
    },
    {
      "inputs": [
        {
          "internalType": "address",
          "name": "token",
          "type": "address"
        }
      ],
      "name": "SafeERC20FailedOperation",
      "type": "error"
    },
    {
      "anonymous": false,
      "inputs": [
        {
          "indexed": true,
          "internalType": "address",
          "name": "previousOwner",
          "type": "address"
        },
        {
          "indexed": true,
          "internalType": "address",
          "name": "newOwner",
          "type": "address"
        }
      ],
      "name": "OwnershipTransferred",
      "type": "event"
    },
    {
      "stateMutability": "payable",
      "type": "fallback"
    },
    {
      "inputs": [],
      "name": "owner",
      "outputs": [
        {
          "internalType": "address",
          "name": "",
          "type": "address"
        }
      ],
      "stateMutability": "view",
      "type": "function"
    },
    {
      "inputs": [],
      "name": "renounceOwnership",
      "outputs": [],
      "stateMutability": "nonpayable",
      "type": "function"
    },
    {
      "inputs": [
        {
          "internalType": "address",
          "name": "newOwner",
          "type": "address"
        }
      ],
      "name": "transferOwnership",
      "outputs": [],
      "stateMutability": "nonpayable",
      "type": "function"
    },
    {
      "inputs": [
        {
          "internalType": "address",
          "name": "token",
          "type": "address"
        },
        {
          "internalType": "uint256",
          "name": "_amountIn",
          "type": "uint256"
        }
      ],
      "name": "withdraw",
      "outputs": [],
      "stateMutability": "nonpayable",
      "type": "function"
    },
    {
      "inputs": [
        {
          "internalType": "address",
          "name": "token",
          "type": "address"
        }
      ],
      "name": "withdrawAll",
      "outputs": [],
      "stateMutability": "nonpayable",
      "type": "function"
    },
    {
      "inputs": [
        {
          "internalType": "uint256",
          "name": "_amountIn",
          "type": "uint256"
        }
      ],
      "name": "withdrawCurrency",
      "outputs": [],
      "stateMutability": "nonpayable",
      "type": "function"
    },
    {
      "stateMutability": "payable",
      "type": "receive"
    }
  ],
  "bytecode": "0x608060405234801561001057600080fd5b5033600073ffffffffffffffffffffffffffffffffffffffff168173ffffffffffffffffffffffffffffffffffffffff16036100845760006040517f1e4fbdf700000000000000000000000000000000000000000000000000000000815260040161007b919061019e565b60405180910390fd5b6100938161009960201b60201c565b506101b9565b60008060009054906101000a900473ffffffffffffffffffffffffffffffffffffffff169050816000806101000a81548173ffffffffffffffffffffffffffffffffffffffff021916908373ffffffffffffffffffffffffffffffffffffffff1602179055508173ffffffffffffffffffffffffffffffffffffffff168173ffffffffffffffffffffffffffffffffffffffff167f8be0079c531659141344cd1fd0a4f28419497f9722a3daafe3b4186f6b6457e060405160405180910390a35050565b600073ffffffffffffffffffffffffffffffffffffffff82169050919050565b60006101888261015d565b9050919050565b6101988161017d565b82525050565b60006020820190506101b3600083018461018f565b92915050565b6107a9806101c86000396000f3fe6080604052600436106100595760003560e01c80633c00a36c14610062578063715018a61461008b5780638da5cb5b146100a2578063f2fde38b146100cd578063f3fef3a3146100f6578063fa09e6301461011f57610060565b3661006057005b005b34801561006e57600080fd5b50610089600480360381019061008491906105d7565b610148565b005b34801561009757600080fd5b506100a061019a565b005b3480156100ae57600080fd5b506100b76101ae565b6040516100c49190610645565b60405180910390f35b3480156100d957600080fd5b506100f460048036038101906100ef919061068c565b6101d7565b005b34801561010257600080fd5b5061011d600480360381019061011891906106b9565b61025d565b005b34801561012b57600080fd5b506101466004803603810190610141919061068c565b610294565b005b610150610328565b3373ffffffffffffffffffffffffffffffffffffffff166108fc829081150290604051600060405180830381858888f19350505050158015610196573d6000803e3d6000fd5b5050565b6101a2610328565b6101ac60006103af565b565b60008060009054906101000a900473ffffffffffffffffffffffffffffffffffffffff16905090565b6101df610328565b600073ffffffffffffffffffffffffffffffffffffffff168173ffffffffffffffffffffffffffffffffffffffff16036102515760006040517f1e4fbdf70000000000000000000000000000000000000000000000000000000081526004016102489190610645565b60405180910390fd5b61025a816103af565b50565b610265610328565b61029033828473ffffffffffffffffffffffffffffffffffffffff166104739092919063ffffffff16565b5050565b61029c610328565b60008173ffffffffffffffffffffffffffffffffffffffff166370a08231306040518263ffffffff1660e01b81526004016102d79190610645565b602060405180830381865afa1580156102f4573d6000803e3d6000fd5b505050506040513d601f19601f82011682018060405250810190610318919061070e565b9050610324828261025d565b5050565b6103306104f2565b73ffffffffffffffffffffffffffffffffffffffff1661034e6101ae565b73ffffffffffffffffffffffffffffffffffffffff16146103ad576103716104f2565b6040517f118cdaa70000000000000000000000000000000000000000000000000000000081526004016103a49190610645565b60405180910390fd5b565b60008060009054906101000a900473ffffffffffffffffffffffffffffffffffffffff169050816000806101000a81548173ffffffffffffffffffffffffffffffffffffffff021916908373ffffffffffffffffffffffffffffffffffffffff1602179055508173ffffffffffffffffffffffffffffffffffffffff168173ffffffffffffffffffffffffffffffffffffffff167f8be0079c531659141344cd1fd0a4f28419497f9722a3daafe3b4186f6b6457e060405160405180910390a35050565b6104ed838473ffffffffffffffffffffffffffffffffffffffff1663a9059cbb85856040516024016104a692919061074a565b604051602081830303815290604052915060e01b6020820180517bffffffffffffffffffffffffffffffffffffffffffffffffffffffff83818316178352505050506104fa565b505050565b600033905090565b600080602060008451602086016000885af18061051d576040513d6000823e3d81fd5b3d925060005191505060008214610538576001811415610554565b60008473ffffffffffffffffffffffffffffffffffffffff163b145b1561059657836040517f5274afe700000000000000000000000000000000000000000000000000000000815260040161058d9190610645565b60405180910390fd5b50505050565b600080fd5b6000819050919050565b6105b4816105a1565b81146105bf57600080fd5b50565b6000813590506105d1816105ab565b92915050565b6000602082840312156105ed576105ec61059c565b5b60006105fb848285016105c2565b91505092915050565b600073ffffffffffffffffffffffffffffffffffffffff82169050919050565b600061062f82610604565b9050919050565b61063f81610624565b82525050565b600060208201905061065a6000830184610636565b92915050565b61066981610624565b811461067457600080fd5b50565b60008135905061068681610660565b92915050565b6000602082840312156106a2576106a161059c565b5b60006106b084828501610677565b91505092915050565b600080604083850312156106d0576106cf61059c565b5b60006106de85828601610677565b92505060206106ef858286016105c2565b9150509250929050565b600081519050610708816105ab565b92915050565b6000602082840312156107245761072361059c565b5b6000610732848285016106f9565b91505092915050565b610744816105a1565b82525050565b600060408201905061075f6000830185610636565b61076c602083018461073b565b939250505056fea2646970667358221220c82ddf1ccd49d1a3e8f14b30d75de7ad7d2e17b0426cbe633eaf8845e08f5d7e64736f6c634300081a0033",
  "linkReferences": {},
  "deployedLinkReferences": {}
}