{
  "_format": "hh-sol-artifact-1",
  "contractName": "GENZY_PRESALE",
  "sourceName": "contracts/GENZYPreSale.sol",
  "abi": [
    {
      "inputs": [
        {
          "internalType": "address",
          "name": "owner",
          "type": "address"
        }
      ],
      "name": "OwnableInvalidOwner",
      "type": "error"
    },
    {
      "inputs": [
        {
          "internalType": "address",
          "name": "account",
          "type": "address"
        }
      ],
      "name": "OwnableUnauthorizedAccount",
      "type": "error"
    },
    {
      "inputs": [],
      "name": "ReentrancyGuardReentrantCall",
      "type": "error"
    },
    {
      "inputs": [
        {
          "internalType": "address",
          "name": "token",
          "type": "address"
        }
      ],
      "name": "SafeERC20FailedOperation",
      "type": "error"
    },
    {
      "anonymous": false,
      "inputs": [
        {
          "indexed": true,
          "internalType": "address",
          "name": "previousOwner",
          "type": "address"
        },
        {
          "indexed": true,
          "internalType": "address",
          "name": "newOwner",
          "type": "address"
        }
      ],
      "name": "OwnershipTransferred",
      "type": "event"
    },
    {
      "stateMutability": "payable",
      "type": "fallback"
    },
    {
      "inputs": [
        {
          "internalType": "address",
          "name": "_token",
          "type": "address"
        },
        {
          "internalType": "uint256",
          "name": "_price",
          "type": "uint256"
        }
      ],
      "name": "addWhiteListedToken",
      "outputs": [],
      "stateMutability": "nonpayable",
      "type": "function"
    },
    {
      "inputs": [
        {
          "internalType": "address",
          "name": "_token",
          "type": "address"
        },
        {
          "internalType": "uint256",
          "name": "_amount",
          "type": "uint256"
        }
      ],
      "name": "execute",
      "outputs": [],
      "stateMutability": "payable",
      "type": "function"
    },
    {
      "inputs": [
        {
          "internalType": "address",
          "name": "token",
          "type": "address"
        },
        {
          "internalType": "uint256",
          "name": "amount",
          "type": "uint256"
        }
      ],
      "name": "getTokenAmount",
      "outputs": [
        {
          "internalType": "uint256",
          "name": "",
          "type": "uint256"
        }
      ],
      "stateMutability": "view",
      "type": "function"
    },
    {
      "inputs": [
        {
          "internalType": "address",
          "name": "",
          "type": "address"
        }
      ],
      "name": "hasPurchased",
      "outputs": [
        {
          "internalType": "bool",
          "name": "",
          "type": "bool"
        }
      ],
      "stateMutability": "view",
      "type": "function"
    },
    {
      "inputs": [],
      "name": "isPresaleStarted",
      "outputs": [
        {
          "internalType": "bool",
          "name": "",
          "type": "bool"
        }
      ],
      "stateMutability": "view",
      "type": "function"
    },
    {
      "inputs": [],
      "name": "owner",
      "outputs": [
        {
          "internalType": "address",
          "name": "",
          "type": "address"
        }
      ],
      "stateMutability": "view",
      "type": "function"
    },
    {
      "inputs": [
        {
          "internalType": "address",
          "name": "",
          "type": "address"
        }
      ],
      "name": "presaleData",
      "outputs": [
        {
          "internalType": "uint256",
          "name": "",
          "type": "uint256"
        }
      ],
      "stateMutability": "view",
      "type": "function"
    },
    {
      "inputs": [],
      "name": "rate",
      "outputs": [
        {
          "internalType": "uint256",
          "name": "",
          "type": "uint256"
        }
      ],
      "stateMutability": "view",
      "type": "function"
    },
    {
      "inputs": [],
      "name": "renounceOwnership",
      "outputs": [],
      "stateMutability": "nonpayable",
      "type": "function"
    },
    {
      "inputs": [],
      "name": "saleToken",
      "outputs": [
        {
          "internalType": "address",
          "name": "",
          "type": "address"
        }
      ],
      "stateMutability": "view",
      "type": "function"
    },
    {
      "inputs": [],
      "name": "saleTokenDecimals",
      "outputs": [
        {
          "internalType": "uint256",
          "name": "",
          "type": "uint256"
        }
      ],
      "stateMutability": "view",
      "type": "function"
    },
    {
      "inputs": [
        {
          "internalType": "address",
          "name": "_saleToken",
          "type": "address"
        },
        {
          "internalType": "uint256",
          "name": "_totalTokensforSale",
          "type": "uint256"
        }
      ],
      "name": "setSaleTokenParams",
      "outputs": [],
      "stateMutability": "nonpayable",
      "type": "function"
    },
    {
      "inputs": [
        {
          "internalType": "bool",
          "name": "_state",
          "type": "bool"
        }
      ],
      "name": "togglePresale",
      "outputs": [],
      "stateMutability": "nonpayable",
      "type": "function"
    },
    {
      "inputs": [
        {
          "internalType": "address",
          "name": "",
          "type": "address"
        }
      ],
      "name": "tokenPrices",
      "outputs": [
        {
          "internalType": "uint256",
          "name": "",
          "type": "uint256"
        }
      ],
      "stateMutability": "view",
      "type": "function"
    },
    {
      "inputs": [
        {
          "internalType": "address",
          "name": "",
          "type": "address"
        }
      ],
      "name": "tokenWhitelist",
      "outputs": [
        {
          "internalType": "bool",
          "name": "",
          "type": "bool"
        }
      ],
      "stateMutability": "view",
      "type": "function"
    },
    {
      "inputs": [],
      "name": "totalInvolved",
      "outputs": [
        {
          "internalType": "uint256",
          "name": "",
          "type": "uint256"
        }
      ],
      "stateMutability": "view",
      "type": "function"
    },
    {
      "inputs": [],
      "name": "totalTokensSold",
      "outputs": [
        {
          "internalType": "uint256",
          "name": "",
          "type": "uint256"
        }
      ],
      "stateMutability": "view",
      "type": "function"
    },
    {
      "inputs": [],
      "name": "totalTokensforSale",
      "outputs": [
        {
          "internalType": "uint256",
          "name": "",
          "type": "uint256"
        }
      ],
      "stateMutability": "view",
      "type": "function"
    },
    {
      "inputs": [
        {
          "internalType": "address",
          "name": "newOwner",
          "type": "address"
        }
      ],
      "name": "transferOwnership",
      "outputs": [],
      "stateMutability": "nonpayable",
      "type": "function"
    },
    {
      "inputs": [
        {
          "internalType": "uint256",
          "name": "_rate",
          "type": "uint256"
        }
      ],
      "name": "updateEthRate",
      "outputs": [],
      "stateMutability": "nonpayable",
      "type": "function"
    },
    {
      "inputs": [
        {
          "internalType": "address",
          "name": "_token",
          "type": "address"
        },
        {
          "internalType": "uint256",
          "name": "_price",
          "type": "uint256"
        }
      ],
      "name": "updateTokenRate",
      "outputs": [],
      "stateMutability": "nonpayable",
      "type": "function"
    },
    {
      "inputs": [
        {
          "internalType": "address",
          "name": "token",
          "type": "address"
        },
        {
          "internalType": "uint256",
          "name": "_amountIn",
          "type": "uint256"
        }
      ],
      "name": "withdraw",
      "outputs": [],
      "stateMutability": "nonpayable",
      "type": "function"
    },
    {
      "inputs": [
        {
          "internalType": "address",
          "name": "token",
          "type": "address"
        }
      ],
      "name": "withdrawAll",
      "outputs": [],
      "stateMutability": "nonpayable",
      "type": "function"
    },
    {
      "inputs": [
        {
          "internalType": "uint256",
          "name": "_amountIn",
          "type": "uint256"
        }
      ],
      "name": "withdrawCurrency",
      "outputs": [],
      "stateMutability": "nonpayable",
      "type": "function"
    },
    {
      "stateMutability": "payable",
      "type": "receive"
    }
  ],
  "bytecode": "0x608060405234801561001057600080fd5b50336001600081905550600073ffffffffffffffffffffffffffffffffffffffff168173ffffffffffffffffffffffffffffffffffffffff160361008c5760006040517f1e4fbdf700000000000000000000000000000000000000000000000000000000815260040161008391906101a8565b60405180910390fd5b61009b816100a160201b60201c565b506101c3565b6000600160009054906101000a900473ffffffffffffffffffffffffffffffffffffffff16905081600160006101000a81548173ffffffffffffffffffffffffffffffffffffffff021916908373ffffffffffffffffffffffffffffffffffffffff1602179055508173ffffffffffffffffffffffffffffffffffffffff168173ffffffffffffffffffffffffffffffffffffffff167f8be0079c531659141344cd1fd0a4f28419497f9722a3daafe3b4186f6b6457e060405160405180910390a35050565b600073ffffffffffffffffffffffffffffffffffffffff82169050919050565b600061019282610167565b9050919050565b6101a281610187565b82525050565b60006020820190506101bd6000830184610199565b92915050565b611df5806101d26000396000f3fe60806040526004361061014f5760003560e01c80636bcedf9c116100b657806398d6d8ed1161006f57806398d6d8ed14610477578063e985e367146104a2578063f2fde38b146104cd578063f3fef3a3146104f6578063f8951a001461051f578063fa09e6301461055c57610156565b80636bcedf9c14610367578063715018a614610392578063753d7563146103a957806389e6ce1e146103e65780638da5cb5b1461040f57806390118fb41461043a57610156565b80633c00a36c116101085780633c00a36c1461026d5780633f6f7ed614610296578063444ad5ee146102bf57806363b20117146102e8578063686a668b146103135780636b2ce7f11461033e57610156565b806302a9e71414610158578063115ece4c14610183578063204120bc146101c0578063226ac321146101fd5780632c4e722e146102265780633b89bb861461025157610156565b3661015657005b005b34801561016457600080fd5b5061016d610585565b60405161017a919061150a565b60405180910390f35b34801561018f57600080fd5b506101aa60048036038101906101a591906115b4565b61058b565b6040516101b7919061150a565b60405180910390f35b3480156101cc57600080fd5b506101e760048036038101906101e291906115f4565b610711565b6040516101f4919061150a565b60405180910390f35b34801561020957600080fd5b50610224600480360381019061021f91906115b4565b610729565b005b34801561023257600080fd5b5061023b610848565b604051610248919061150a565b60405180910390f35b61026b600480360381019061026691906115b4565b61084e565b005b34801561027957600080fd5b50610294600480360381019061028f9190611621565b610cb4565b005b3480156102a257600080fd5b506102bd60048036038101906102b89190611621565b610d06565b005b3480156102cb57600080fd5b506102e660048036038101906102e191906115b4565b610d18565b005b3480156102f457600080fd5b506102fd610e03565b60405161030a919061150a565b60405180910390f35b34801561031f57600080fd5b50610328610e09565b604051610335919061150a565b60405180910390f35b34801561034a57600080fd5b5061036560048036038101906103609190611686565b610e0f565b005b34801561037357600080fd5b5061037c610e34565b604051610389919061150a565b60405180910390f35b34801561039e57600080fd5b506103a7610e3a565b005b3480156103b557600080fd5b506103d060048036038101906103cb91906115f4565b610e4e565b6040516103dd91906116c2565b60405180910390f35b3480156103f257600080fd5b5061040d600480360381019061040891906115b4565b610e6e565b005b34801561041b57600080fd5b50610424610fbd565b60405161043191906116ec565b60405180910390f35b34801561044657600080fd5b50610461600480360381019061045c91906115f4565b610fe7565b60405161046e91906116c2565b60405180910390f35b34801561048357600080fd5b5061048c611007565b60405161049991906116c2565b60405180910390f35b3480156104ae57600080fd5b506104b761101a565b6040516104c491906116ec565b60405180910390f35b3480156104d957600080fd5b506104f460048036038101906104ef91906115f4565b611040565b005b34801561050257600080fd5b5061051d600480360381019061051891906115b4565b6110c6565b005b34801561052b57600080fd5b50610546600480360381019061054191906115f4565b6110fd565b604051610553919061150a565b60405180910390f35b34801561056857600080fd5b50610583600480360381019061057e91906115f4565b611115565b005b60045481565b6000600860009054906101000a900460ff166105aa576000905061070b565b60008073ffffffffffffffffffffffffffffffffffffffff168473ffffffffffffffffffffffffffffffffffffffff16146106dc57600660008573ffffffffffffffffffffffffffffffffffffffff1673ffffffffffffffffffffffffffffffffffffffff16815260200190815260200160002060009054906101000a900460ff1661066b576040517f08c379a000000000000000000000000000000000000000000000000000000000815260040161066290611764565b60405180910390fd5b6000600760008673ffffffffffffffffffffffffffffffffffffffff1673ffffffffffffffffffffffffffffffffffffffff16815260200190815260200160002054905080600454600a6106bf91906118e6565b856106ca9190611931565b6106d491906119a2565b915050610706565b600254600454600a6106ee91906118e6565b846106f99190611931565b61070391906119a2565b90505b809150505b92915050565b60076020528060005260406000206000915090505481565b6107316111a9565b600660008373ffffffffffffffffffffffffffffffffffffffff1673ffffffffffffffffffffffffffffffffffffffff16815260200190815260200160002060009054906101000a900460ff166107bd576040517f08c379a00000000000000000000000000000000000000000000000000000000081526004016107b490611764565b60405180910390fd5b60008103610800576040517f08c379a00000000000000000000000000000000000000000000000000000000081526004016107f790611a1f565b60405180910390fd5b80600760008473ffffffffffffffffffffffffffffffffffffffff1673ffffffffffffffffffffffffffffffffffffffff168152602001908152602001600020819055505050565b60025481565b610856611230565b600860009054906101000a900460ff166108a5576040517f08c379a000000000000000000000000000000000000000000000000000000000815260040161089c90611a8b565b60405180910390fd5b60008073ffffffffffffffffffffffffffffffffffffffff168373ffffffffffffffffffffffffffffffffffffffff1614610a86576000821161091d576040517f08c379a000000000000000000000000000000000000000000000000000000000815260040161091490611b1d565b60405180910390fd5b600660008473ffffffffffffffffffffffffffffffffffffffff1673ffffffffffffffffffffffffffffffffffffffff16815260200190815260200160002060009054906101000a900460ff166109a9576040517f08c379a00000000000000000000000000000000000000000000000000000000081526004016109a090611764565b60405180910390fd5b6109b3838361058b565b905060055481600a546109c69190611b3d565b1115610a07576040517f08c379a00000000000000000000000000000000000000000000000000000000081526004016109fe90611be3565b60405180910390fd5b610a343330848673ffffffffffffffffffffffffffffffffffffffff16611276909392919063ffffffff16565b610a813382600360009054906101000a900473ffffffffffffffffffffffffffffffffffffffff1673ffffffffffffffffffffffffffffffffffffffff166112f89092919063ffffffff16565b610b76565b60003411610ac9576040517f08c379a0000000000000000000000000000000000000000000000000000000008152600401610ac090611c4f565b60405180910390fd5b610ad460003461058b565b905060055481600a54610ae79190611b3d565b1115610b28576040517f08c379a0000000000000000000000000000000000000000000000000000000008152600401610b1f90611be3565b60405180910390fd5b610b753382600360009054906101000a900473ffffffffffffffffffffffffffffffffffffffff1673ffffffffffffffffffffffffffffffffffffffff166112f89092919063ffffffff16565b5b600c60003373ffffffffffffffffffffffffffffffffffffffff1673ffffffffffffffffffffffffffffffffffffffff16815260200190815260200160002060009054906101000a900460ff16610c38576001600c60003373ffffffffffffffffffffffffffffffffffffffff1673ffffffffffffffffffffffffffffffffffffffff16815260200190815260200160002060006101000a81548160ff021916908315150217905550600b6000815480929190610c3290611c6f565b91905055505b80600a6000828254610c4a9190611b3d565b9250508190555080600960003373ffffffffffffffffffffffffffffffffffffffff1673ffffffffffffffffffffffffffffffffffffffff1681526020019081526020016000206000828254610ca09190611b3d565b9250508190555050610cb0611377565b5050565b610cbc6111a9565b3373ffffffffffffffffffffffffffffffffffffffff166108fc829081150290604051600060405180830381858888f19350505050158015610d02573d6000803e3d6000fd5b5050565b610d0e6111a9565b8060028190555050565b610d206111a9565b60008103610d63576040517f08c379a0000000000000000000000000000000000000000000000000000000008152600401610d5a90611a1f565b60405180910390fd5b6001600660008473ffffffffffffffffffffffffffffffffffffffff1673ffffffffffffffffffffffffffffffffffffffff16815260200190815260200160002060006101000a81548160ff02191690831515021790555080600760008473ffffffffffffffffffffffffffffffffffffffff1673ffffffffffffffffffffffffffffffffffffffff168152602001908152602001600020819055505050565b600a5481565b600b5481565b610e176111a9565b80600860006101000a81548160ff02191690831515021790555050565b60055481565b610e426111a9565b610e4c6000611381565b565b60066020528060005260406000206000915054906101000a900460ff1681565b610e766111a9565b81600360006101000a81548173ffffffffffffffffffffffffffffffffffffffff021916908373ffffffffffffffffffffffffffffffffffffffff160217905550600360009054906101000a900473ffffffffffffffffffffffffffffffffffffffff1673ffffffffffffffffffffffffffffffffffffffff1663313ce5676040518163ffffffff1660e01b8152600401602060405180830381865afa158015610f24573d6000803e3d6000fd5b505050506040513d601f19601f82011682018060405250810190610f489190611cf0565b60ff166004819055508060056000828254610f639190611b3d565b92505081905550610fb9333083600360009054906101000a900473ffffffffffffffffffffffffffffffffffffffff1673ffffffffffffffffffffffffffffffffffffffff16611276909392919063ffffffff16565b5050565b6000600160009054906101000a900473ffffffffffffffffffffffffffffffffffffffff16905090565b600c6020528060005260406000206000915054906101000a900460ff1681565b600860009054906101000a900460ff1681565b600360009054906101000a900473ffffffffffffffffffffffffffffffffffffffff1681565b6110486111a9565b600073ffffffffffffffffffffffffffffffffffffffff168173ffffffffffffffffffffffffffffffffffffffff16036110ba5760006040517f1e4fbdf70000000000000000000000000000000000000000000000000000000081526004016110b191906116ec565b60405180910390fd5b6110c381611381565b50565b6110ce6111a9565b6110f933828473ffffffffffffffffffffffffffffffffffffffff166112f89092919063ffffffff16565b5050565b60096020528060005260406000206000915090505481565b61111d6111a9565b60008173ffffffffffffffffffffffffffffffffffffffff166370a08231306040518263ffffffff1660e01b815260040161115891906116ec565b602060405180830381865afa158015611175573d6000803e3d6000fd5b505050506040513d601f19601f820116820180604052508101906111999190611d32565b90506111a582826110c6565b5050565b6111b1611447565b73ffffffffffffffffffffffffffffffffffffffff166111cf610fbd565b73ffffffffffffffffffffffffffffffffffffffff161461122e576111f2611447565b6040517f118cdaa700000000000000000000000000000000000000000000000000000000815260040161122591906116ec565b60405180910390fd5b565b60026000540361126c576040517f3ee5aeb500000000000000000000000000000000000000000000000000000000815260040160405180910390fd5b6002600081905550565b6112f2848573ffffffffffffffffffffffffffffffffffffffff166323b872dd8686866040516024016112ab93929190611d5f565b604051602081830303815290604052915060e01b6020820180517bffffffffffffffffffffffffffffffffffffffffffffffffffffffff838183161783525050505061144f565b50505050565b611372838473ffffffffffffffffffffffffffffffffffffffff1663a9059cbb858560405160240161132b929190611d96565b604051602081830303815290604052915060e01b6020820180517bffffffffffffffffffffffffffffffffffffffffffffffffffffffff838183161783525050505061144f565b505050565b6001600081905550565b6000600160009054906101000a900473ffffffffffffffffffffffffffffffffffffffff16905081600160006101000a81548173ffffffffffffffffffffffffffffffffffffffff021916908373ffffffffffffffffffffffffffffffffffffffff1602179055508173ffffffffffffffffffffffffffffffffffffffff168173ffffffffffffffffffffffffffffffffffffffff167f8be0079c531659141344cd1fd0a4f28419497f9722a3daafe3b4186f6b6457e060405160405180910390a35050565b600033905090565b600080602060008451602086016000885af180611472576040513d6000823e3d81fd5b3d92506000519150506000821461148d5760018114156114a9565b60008473ffffffffffffffffffffffffffffffffffffffff163b145b156114eb57836040517f5274afe70000000000000000000000000000000000000000000000000000000081526004016114e291906116ec565b60405180910390fd5b50505050565b6000819050919050565b611504816114f1565b82525050565b600060208201905061151f60008301846114fb565b92915050565b600080fd5b600073ffffffffffffffffffffffffffffffffffffffff82169050919050565b60006115558261152a565b9050919050565b6115658161154a565b811461157057600080fd5b50565b6000813590506115828161155c565b92915050565b611591816114f1565b811461159c57600080fd5b50565b6000813590506115ae81611588565b92915050565b600080604083850312156115cb576115ca611525565b5b60006115d985828601611573565b92505060206115ea8582860161159f565b9150509250929050565b60006020828403121561160a57611609611525565b5b600061161884828501611573565b91505092915050565b60006020828403121561163757611636611525565b5b60006116458482850161159f565b91505092915050565b60008115159050919050565b6116638161164e565b811461166e57600080fd5b50565b6000813590506116808161165a565b92915050565b60006020828403121561169c5761169b611525565b5b60006116aa84828501611671565b91505092915050565b6116bc8161164e565b82525050565b60006020820190506116d760008301846116b3565b92915050565b6116e68161154a565b82525050565b600060208201905061170160008301846116dd565b92915050565b600082825260208201905092915050565b7f50726573616c653a20546f6b656e206e6f742077686974656c69737465640000600082015250565b600061174e601e83611707565b915061175982611718565b602082019050919050565b6000602082019050818103600083015261177d81611741565b9050919050565b7f4e487b7100000000000000000000000000000000000000000000000000000000600052601160045260246000fd5b60008160011c9050919050565b6000808291508390505b600185111561180a578086048111156117e6576117e5611784565b5b60018516156117f55780820291505b8081029050611803856117b3565b94506117ca565b94509492505050565b60008261182357600190506118df565b8161183157600090506118df565b8160018114611847576002811461185157611880565b60019150506118df565b60ff84111561186357611862611784565b5b8360020a91508482111561187a57611879611784565b5b506118df565b5060208310610133831016604e8410600b84101617156118b55782820a9050838111156118b0576118af611784565b5b6118df565b6118c284848460016117c0565b925090508184048111156118d9576118d8611784565b5b81810290505b9392505050565b60006118f1826114f1565b91506118fc836114f1565b92506119297fffffffffffffffffffffffffffffffffffffffffffffffffffffffffffffffff8484611813565b905092915050565b600061193c826114f1565b9150611947836114f1565b9250828202611955816114f1565b9150828204841483151761196c5761196b611784565b5b5092915050565b7f4e487b7100000000000000000000000000000000000000000000000000000000600052601260045260246000fd5b60006119ad826114f1565b91506119b8836114f1565b9250826119c8576119c7611973565b5b828204905092915050565b7f50726573616c653a2043616e6e6f742073657420707269636520746f20300000600082015250565b6000611a09601e83611707565b9150611a14826119d3565b602082019050919050565b60006020820190508181036000830152611a38816119fc565b9050919050565b7f50726553616c653a2053616c652073746f707065642100000000000000000000600082015250565b6000611a75601683611707565b9150611a8082611a3f565b602082019050919050565b60006020820190508181036000830152611aa481611a68565b9050919050565b7f50726573616c653a2043616e6e6f74206275792077697468207a65726f20616d60008201527f6f756e7400000000000000000000000000000000000000000000000000000000602082015250565b6000611b07602483611707565b9150611b1282611aab565b604082019050919050565b60006020820190508181036000830152611b3681611afa565b9050919050565b6000611b48826114f1565b9150611b53836114f1565b9250828201905080821115611b6b57611b6a611784565b5b92915050565b7f50726553616c653a20546f74616c20546f6b656e2053616c652052656163686560008201527f6421000000000000000000000000000000000000000000000000000000000000602082015250565b6000611bcd602283611707565b9150611bd882611b71565b604082019050919050565b60006020820190508181036000830152611bfc81611bc0565b9050919050565b7f46756e64206e65656420746f2062652067726561746572207468616e20300000600082015250565b6000611c39601e83611707565b9150611c4482611c03565b602082019050919050565b60006020820190508181036000830152611c6881611c2c565b9050919050565b6000611c7a826114f1565b91507fffffffffffffffffffffffffffffffffffffffffffffffffffffffffffffffff8203611cac57611cab611784565b5b600182019050919050565b600060ff82169050919050565b611ccd81611cb7565b8114611cd857600080fd5b50565b600081519050611cea81611cc4565b92915050565b600060208284031215611d0657611d05611525565b5b6000611d1484828501611cdb565b91505092915050565b600081519050611d2c81611588565b92915050565b600060208284031215611d4857611d47611525565b5b6000611d5684828501611d1d565b91505092915050565b6000606082019050611d7460008301866116dd565b611d8160208301856116dd565b611d8e60408301846114fb565b949350505050565b6000604082019050611dab60008301856116dd565b611db860208301846114fb565b939250505056fea2646970667358221220e37d41f0699d59a6ffe91fd504ea425ce23115b928e71dc1c8d91b4cfe35052d64736f6c634300081a0033",
  "linkReferences": {},
  "deployedLinkReferences": {}
}